:100000000C945D000C9485000C9485000C94850084
:100010000C9485000C9485000C9485000C9485004C
:100020000C9485000C9485000C9485000C9485003C
:100030000C9485000C9485000C9485000C9485002C
:100040000C9426020C9485000C9496020C94700279
:100050000C9485000C9485000C9485000C9485000C
:100060000C9485000C9485000000000024002700FB
:100070002A0000000000250028002B0004040404CE
:100080000404040402020202020203030303030342
:10009000010204081020408001020408102001021F
:1000A00004081020000000080002010000030407FB
:1000B0000000000000000000440411241FBECFEF28
:1000C000D8E0DEBFCDBF11E0A0E0B1E0E4E4FBE0AA
:1000D00002C005900D92A231B107D9F721E0A2E14B
:1000E000B1E001C01D92AC3BB207E1F710E0CDE5F5
:1000F000D0E004C02197FE010E949A05CC35D107BB
:10010000C9F70E94C8020C94A0050C940000AF929D
:10011000BF92CF92DF92EF92FF920F931F93CF93F4
:10012000DF936C017B018B01040F151FEB015E0156
:10013000AE18BF08C017D10759F06991D601ED91EB
:10014000FC910190F081E02DC6010995892B79F78A
:10015000C501DF91CF911F910F91FF90EF90DF903C
:10016000CF90BF90AF900895FC01538D448D252F03
:1001700030E0842F90E0821B930B541710F0CF9641
:10018000089501970895FC01918D828D981761F073
:10019000A28DAE0FBF2FB11D5D968C91928D9F5F8A
:1001A0009F73928F90E008958FEF9FEF0895FC0169
:1001B000918D828D981731F0828DE80FF11D858D1C
:1001C00090E008958FEF9FEF0895FC01918D228DAF
:1001D000892F90E0805C9F4F821B91098F73992734
:1001E000089582E191E00E94E50021E0892B09F465
:1001F00020E0822F089580E090E0892B29F00E9472
:10020000F10081110C9400000895FC01A48DA80F49
:10021000B92FB11DA35ABF4F2C91848D90E0019648
:100220008F739927848FA689B7892C93A089B18968
:100230008C91837080648C93938D848D981306C009
:100240000288F389E02D80818F7D80830895EF926D
:10025000FF920F931F93CF93DF93EC0181E0888F80
:100260009B8D8C8D98131AC0E889F989808185FF50
:1002700015C09FB7F894EE89FF896083E889F989F2
:1002800080818370806480839FBF81E090E0DF91F4
:10029000CF911F910F91FF90EF900895F62E0B8D47
:1002A00010E00F5F1F4F0F731127E02E8C8D8E1102
:1002B0000CC00FB607FCFACFE889F989808185FF69
:1002C000F5CFCE010E940501F1CFEB8DEC0FFD2F94
:1002D000F11DE35AFF4FF0829FB7F8940B8FEA8924
:1002E000FB8980818062CFCFCF93DF93EC01888D33
:1002F0008823B9F0AA89BB89E889F9898C9185FDA1
:1003000003C0808186FD0DC00FB607FCF7CF8C912E
:1003100085FFF2CF808185FFEDCFCE010E940501E0
:10032000E9CFDF91CF91089590E0FC01EC55FF4FAC
:100330002491FC01E057FF4F3491FC01E458FF4F3A
:10034000E491EE23C9F0222339F0233001F1A8F41F
:10035000213019F1223029F1F0E0EE0FFF1FEE58A5
:10036000FF4FA591B4918FB7F894EC91611126C01D
:1003700030953E233C938FBF08952730A9F0283055
:10038000C9F0243049F7809180008F7D03C08091AF
:1003900080008F7780938000DFCF84B58F7784BD16
:1003A000DBCF84B58F7DFBCF8091B0008F778093BA
:1003B000B000D2CF8091B0008F7DF9CF3E2BDACF45
:1003C000CF93DF9390E0FC01E057FF4F24918458D6
:1003D0009F4FFC0184918823D1F090E0880F991FF2
:1003E000FC01E859FF4FA591B491FC01EE58FF4F75
:1003F000C591D49161110EC09FB7F8948C91E22FF2
:10040000E0958E238C932881E223E8839FBFDF91C0
:10041000CF9108958FB7F894EC91E22BEC938FBFB6
:10042000F6CF8E3008F08E508770806480937C0009
:1004300080917A00806480937A0080917A0086FDB2
:10044000FCCF809178009091790008951F920F92CF
:100450000FB60F9211242F933F938F939F93AF93D7
:10046000BF938091B8019091B901A091BA01B09168
:10047000BB013091B70123E0230F2D3758F50196CA
:10048000A11DB11D2093B7018093B8019093B901CC
:10049000A093BA01B093BB018091B3019091B401D4
:1004A000A091B501B091B6010196A11DB11D809337
:1004B000B3019093B401A093B501B093B601BF917D
:1004C000AF919F918F913F912F910F900FBE0F9001
:1004D0001F90189526E8230F0296A11DB11DD2CFBB
:1004E0001F920F920FB60F9211242F933F934F93A9
:1004F0005F936F937F938F939F93AF93BF93EF938C
:10050000FF9382E191E00E940501FF91EF91BF917D
:10051000AF919F918F917F916F915F914F913F919B
:100520002F910F900FBE0F901F9018951F920F9252
:100530000FB60F9211242F938F939F93EF93FF93F6
:10054000E0912201F09123018081E0912801F09156
:10055000290182FD1BC0908180912B018F5F8F73D9
:1005600020912C01821741F0E0912B01F0E0EE5E2A
:10057000FE4F958F80932B01FF91EF919F918F916B
:100580002F910F900FBE0F901F9018958081F4CF80
:10059000CF93DF9300D000D0CDB7DEB7789484B589
:1005A000826084BD84B5816084BD85B5826085BD6F
:1005B00085B5816085BD80916E00816080936E00FD
:1005C00010928100809181008260809381008091EF
:1005D00081008160809381008091800081608093A0
:1005E00080008091B10084608093B1008091B00060
:1005F00081608093B00080917A00846080937A005B
:1006000080917A00826080937A0080917A00816084
:1006100080937A0080917A00806880937A001092AB
:10062000C100E0912201F091230182E08083E091FA
:100630001E01F0911F011082E0912001F091210133
:100640008FEC808310922A01E0912601F09127011E
:1006500086E08083E0912401F09125018081806112
:100660008083E0912401F09125018081886080835E
:10067000E0912401F0912501808180688083E091E0
:100680002401F091250180818F7D808360E080E1ED
:100690000E94E00160E08FE00E94E00160E08EE0F7
:1006A0000E94E00161E087E00E94E00161E088E0F3
:1006B0000E94E00161E089E00E94E00100E010E0BA
:1006C0008EE00E9411026C019093B2018093B101FF
:1006D0008FE00E9411027C019093B0018093AF01E2
:1006E00080E10E9411029B838A83B601DD0C880B96
:1006F000990B0E9478042AE038E240EA5BE30E940A
:10070000DC044B015C01B701FF0C880B990B0E94C4
:1007100078042AE038E240EA5BE30E94DC046B01E3
:100720007C012A813B81B901330F880B990B0E9410
:1007300078042AE038E240EA5BE30E94DC042B0103
:100740003C0131E03A832FE832EC45E35FE30E945D
:10075000D70418160CF01A822AE939E949E950E45D
:10076000C701B6010E947104382E331C3324331C98
:100770008A818321898325E83BEE41E250E4C5016B
:10078000B4010E947104282E221C2224221C99816B
:100790009923D1F02220C1F060E087E00E9494010B
:1007A00061E088E00E94940160E089E00E94940189
:1007B0000115110509F484CF0E94F100882309F482
:1007C0007FCF0E9400007CCF21E02C8325E83BEE08
:1007D00041E250E4C501B4010E94D70418160CF0A0
:1007E0001C823981332319F08C818111D5CFBB2430
:1007F000B3942AE939E949E950E4C701B6010E94F6
:10080000D70418160CF0B12C9A819B2199832220D1
:1008100041F0992331F060E087E00E94940160E0AC
:10082000C0CF2C81222369F03981332351F060E05D
:1008300087E00E94940160E088E00E94940161E0FA
:10084000B4CF2FE832EC45E35FE3C301B2010E946D
:100850007104881F8827881F3822222021F0332026
:1008600011F061E0D9CF9C81992311F03110D3CFE1
:10087000B822222011F0B110F4CF2C81222309F4E8
:1008800097CFB110D4CF94CFE2E1F1E0138212827E
:1008900088EE93E0A0E0B0E084839583A683B783DD
:1008A00084E091E09183808385EC90E09587848754
:1008B00084EC90E09787868780EC90E0918B808B2A
:1008C00081EC90E0938B828B82EC90E0958B848B13
:1008D00086EC90E0978B868B118E128E138E148E81
:1008E00008950E94B30408F481E00895E89409C0D3
:1008F00097FB3EF490958095709561957F4F8F4F53
:100900009F4F9923A9F0F92F96E9BB279395F69568
:10091000879577956795B795F111F8CFFAF4BB0FE6
:1009200011F460FF1BC06F5F7F4F8F4F9F4F16C04A
:10093000882311F096E911C0772321F09EE8872FD4
:10094000762F05C0662371F096E8862F70E060E090
:100950002AF09A95660F771F881FDAF7880F969509
:10096000879597F90895990F0008550FAA0BE0E8AD
:10097000FEEF16161706E807F907C0F01216130661
:10098000E407F50798F0621B730B840B950B39F4A1
:100990000A2661F0232B242B252B21F408950A2607
:1009A00009F4A140A6958FEF811D811D08950E9435
:1009B000B30408F48FEF08950E94EF040C946005CF
:1009C0000E94520538F00E94590520F0952311F03D
:1009D0000C9449050C944F0511240C9494050E9425
:1009E000710570F3959FC1F3950F50E0551F629FFD
:1009F000F001729FBB27F00DB11D639FAA27F00D78
:100A0000B11DAA1F649F6627B00DA11D661F829F9E
:100A10002227B00DA11D621F739FB00DA11D621F83
:100A2000839FA00D611D221F749F3327A00D611DA0
:100A3000231F849F600D211D822F762F6A2F112482
:100A40009F5750409AF0F1F088234AF0EE0FFF1FB5
:100A5000BB1F661F771F881F91505040A9F79E3F0C
:100A6000510580F00C9449050C9494055F3FE4F324
:100A7000983ED4F3869577956795B795F795E79562
:100A80009F5FC1F7FE2B880F911D9695879597F96B
:100A9000089597F99F6780E870E060E008959FEF00
:100AA00080EC089500240A94161617061806090605
:100AB000089500240A9412161306140605060895D4
:100AC000092E0394000C11F4882352F0BB0F40F45C
:100AD000BF2B11F460FF04C06F5F7F4F8F4F9F4F9C
:100AE000089557FD9058440F551F59F05F3F71F01E
:100AF0004795880F97FB991F61F09F3F79F0879585
:100B00000895121613061406551FF2CF4695F1DF0D
:100B100008C0161617061806991FF1CF869571059D
:100B2000610508940895E894BB2766277727CB01D1
:100B300097F90895EE0FFF1F0590F491E02D0994A9
:040B4000F894FFCF57
:100B44000000000027018700B4007401E500C30021
:020B5400D700C8
:00000001FF
